{
  "contractName": "TicketFactory",
  "abi": [
    {
      "inputs": [
        {
          "internalType": "string",
          "name": "_name",
          "type": "string"
        },
        {
          "internalType": "string",
          "name": "_symbol",
          "type": "string"
        },
        {
          "internalType": "address",
          "name": "_forwarder",
          "type": "address"
        }
      ],
      "stateMutability": "nonpayable",
      "type": "constructor"
    },
    {
      "anonymous": false,
      "inputs": [
        {
          "indexed": true,
          "internalType": "address",
          "name": "owner",
          "type": "address"
        },
        {
          "indexed": true,
          "internalType": "address",
          "name": "approved",
          "type": "address"
        },
        {
          "indexed": true,
          "internalType": "uint256",
          "name": "tokenId",
          "type": "uint256"
        }
      ],
      "name": "Approval",
      "type": "event"
    },
    {
      "anonymous": false,
      "inputs": [
        {
          "indexed": true,
          "internalType": "address",
          "name": "owner",
          "type": "address"
        },
        {
          "indexed": true,
          "internalType": "address",
          "name": "operator",
          "type": "address"
        },
        {
          "indexed": false,
          "internalType": "bool",
          "name": "approved",
          "type": "bool"
        }
      ],
      "name": "ApprovalForAll",
      "type": "event"
    },
    {
      "anonymous": false,
      "inputs": [
        {
          "indexed": false,
          "internalType": "uint256",
          "name": "experienceId",
          "type": "uint256"
        }
      ],
      "name": "ExperienceEnded",
      "type": "event"
    },
    {
      "anonymous": false,
      "inputs": [
        {
          "indexed": false,
          "internalType": "uint256",
          "name": "ticketId",
          "type": "uint256"
        },
        {
          "indexed": false,
          "internalType": "address",
          "name": "host",
          "type": "address"
        },
        {
          "indexed": false,
          "internalType": "address",
          "name": "guest",
          "type": "address"
        },
        {
          "indexed": false,
          "internalType": "uint256",
          "name": "hostExperienceAccessId",
          "type": "uint256"
        },
        {
          "indexed": false,
          "internalType": "uint256",
          "name": "guestExperienceAccessId",
          "type": "uint256"
        }
      ],
      "name": "ExperienceMatchingCreated",
      "type": "event"
    },
    {
      "anonymous": false,
      "inputs": [
        {
          "indexed": true,
          "internalType": "address",
          "name": "previousOwner",
          "type": "address"
        },
        {
          "indexed": true,
          "internalType": "address",
          "name": "newOwner",
          "type": "address"
        }
      ],
      "name": "OwnershipTransferred",
      "type": "event"
    },
    {
      "anonymous": false,
      "inputs": [
        {
          "indexed": false,
          "internalType": "address",
          "name": "addressToPay",
          "type": "address"
        },
        {
          "indexed": false,
          "internalType": "uint256",
          "name": "amountToPay",
          "type": "uint256"
        }
      ],
      "name": "PayoutSent",
      "type": "event"
    },
    {
      "anonymous": false,
      "inputs": [
        {
          "indexed": false,
          "internalType": "uint256",
          "name": "ticketId",
          "type": "uint256"
        },
        {
          "indexed": false,
          "internalType": "address",
          "name": "ticketCreator",
          "type": "address"
        },
        {
          "indexed": false,
          "internalType": "string",
          "name": "props",
          "type": "string"
        },
        {
          "indexed": false,
          "internalType": "int256",
          "name": "templateIndex",
          "type": "int256"
        }
      ],
      "name": "TicketCreated",
      "type": "event"
    },
    {
      "anonymous": false,
      "inputs": [
        {
          "indexed": true,
          "internalType": "address",
          "name": "from",
          "type": "address"
        },
        {
          "indexed": true,
          "internalType": "address",
          "name": "to",
          "type": "address"
        },
        {
          "indexed": true,
          "internalType": "uint256",
          "name": "tokenId",
          "type": "uint256"
        }
      ],
      "name": "Transfer",
      "type": "event"
    },
    {
      "inputs": [
        {
          "internalType": "address",
          "name": "to",
          "type": "address"
        },
        {
          "internalType": "uint256",
          "name": "tokenId",
          "type": "uint256"
        }
      ],
      "name": "approve",
      "outputs": [],
      "stateMutability": "nonpayable",
      "type": "function"
    },
    {
      "inputs": [
        {
          "internalType": "address",
          "name": "owner",
          "type": "address"
        }
      ],
      "name": "balanceOf",
      "outputs": [
        {
          "internalType": "uint256",
          "name": "",
          "type": "uint256"
        }
      ],
      "stateMutability": "view",
      "type": "function"
    },
    {
      "inputs": [],
      "name": "baseURI",
      "outputs": [
        {
          "internalType": "string",
          "name": "",
          "type": "string"
        }
      ],
      "stateMutability": "view",
      "type": "function"
    },
    {
      "inputs": [
        {
          "internalType": "uint256",
          "name": "",
          "type": "uint256"
        }
      ],
      "name": "cardsToTemplates",
      "outputs": [
        {
          "internalType": "uint256",
          "name": "",
          "type": "uint256"
        }
      ],
      "stateMutability": "view",
      "type": "function"
    },
    {
      "inputs": [
        {
          "internalType": "uint256",
          "name": "",
          "type": "uint256"
        }
      ],
      "name": "expiredExperience",
      "outputs": [
        {
          "internalType": "bool",
          "name": "",
          "type": "bool"
        }
      ],
      "stateMutability": "view",
      "type": "function"
    },
    {
      "inputs": [
        {
          "internalType": "uint256",
          "name": "tokenId",
          "type": "uint256"
        }
      ],
      "name": "getApproved",
      "outputs": [
        {
          "internalType": "address",
          "name": "",
          "type": "address"
        }
      ],
      "stateMutability": "view",
      "type": "function"
    },
    {
      "inputs": [
        {
          "internalType": "address",
          "name": "owner",
          "type": "address"
        },
        {
          "internalType": "address",
          "name": "operator",
          "type": "address"
        }
      ],
      "name": "isApprovedForAll",
      "outputs": [
        {
          "internalType": "bool",
          "name": "",
          "type": "bool"
        }
      ],
      "stateMutability": "view",
      "type": "function"
    },
    {
      "inputs": [
        {
          "internalType": "address",
          "name": "forwarder",
          "type": "address"
        }
      ],
      "name": "isTrustedForwarder",
      "outputs": [
        {
          "internalType": "bool",
          "name": "",
          "type": "bool"
        }
      ],
      "stateMutability": "view",
      "type": "function"
    },
    {
      "inputs": [],
      "name": "name",
      "outputs": [
        {
          "internalType": "string",
          "name": "",
          "type": "string"
        }
      ],
      "stateMutability": "view",
      "type": "function"
    },
    {
      "inputs": [],
      "name": "owner",
      "outputs": [
        {
          "internalType": "address",
          "name": "",
          "type": "address"
        }
      ],
      "stateMutability": "view",
      "type": "function"
    },
    {
      "inputs": [
        {
          "internalType": "uint256",
          "name": "tokenId",
          "type": "uint256"
        }
      ],
      "name": "ownerOf",
      "outputs": [
        {
          "internalType": "address",
          "name": "",
          "type": "address"
        }
      ],
      "stateMutability": "view",
      "type": "function"
    },
    {
      "inputs": [],
      "name": "renounceOwnership",
      "outputs": [],
      "stateMutability": "nonpayable",
      "type": "function"
    },
    {
      "inputs": [],
      "name": "royaltiesToken",
      "outputs": [
        {
          "internalType": "contract IntooTVRoyalty",
          "name": "",
          "type": "address"
        }
      ],
      "stateMutability": "view",
      "type": "function"
    },
    {
      "inputs": [
        {
          "internalType": "address",
          "name": "from",
          "type": "address"
        },
        {
          "internalType": "address",
          "name": "to",
          "type": "address"
        },
        {
          "internalType": "uint256",
          "name": "tokenId",
          "type": "uint256"
        }
      ],
      "name": "safeTransferFrom",
      "outputs": [],
      "stateMutability": "nonpayable",
      "type": "function"
    },
    {
      "inputs": [
        {
          "internalType": "address",
          "name": "from",
          "type": "address"
        },
        {
          "internalType": "address",
          "name": "to",
          "type": "address"
        },
        {
          "internalType": "uint256",
          "name": "tokenId",
          "type": "uint256"
        },
        {
          "internalType": "bytes",
          "name": "_data",
          "type": "bytes"
        }
      ],
      "name": "safeTransferFrom",
      "outputs": [],
      "stateMutability": "nonpayable",
      "type": "function"
    },
    {
      "inputs": [
        {
          "internalType": "address",
          "name": "operator",
          "type": "address"
        },
        {
          "internalType": "bool",
          "name": "approved",
          "type": "bool"
        }
      ],
      "name": "setApprovalForAll",
      "outputs": [],
      "stateMutability": "nonpayable",
      "type": "function"
    },
    {
      "inputs": [
        {
          "internalType": "bytes4",
          "name": "interfaceId",
          "type": "bytes4"
        }
      ],
      "name": "supportsInterface",
      "outputs": [
        {
          "internalType": "bool",
          "name": "",
          "type": "bool"
        }
      ],
      "stateMutability": "view",
      "type": "function"
    },
    {
      "inputs": [],
      "name": "symbol",
      "outputs": [
        {
          "internalType": "string",
          "name": "",
          "type": "string"
        }
      ],
      "stateMutability": "view",
      "type": "function"
    },
    {
      "inputs": [],
      "name": "templatesRegistry",
      "outputs": [
        {
          "internalType": "contract TemplatesRegistry",
          "name": "",
          "type": "address"
        }
      ],
      "stateMutability": "view",
      "type": "function"
    },
    {
      "inputs": [
        {
          "internalType": "uint256",
          "name": "",
          "type": "uint256"
        }
      ],
      "name": "ticketsToCards",
      "outputs": [
        {
          "internalType": "uint256",
          "name": "",
          "type": "uint256"
        }
      ],
      "stateMutability": "view",
      "type": "function"
    },
    {
      "inputs": [
        {
          "internalType": "uint256",
          "name": "index",
          "type": "uint256"
        }
      ],
      "name": "tokenByIndex",
      "outputs": [
        {
          "internalType": "uint256",
          "name": "",
          "type": "uint256"
        }
      ],
      "stateMutability": "view",
      "type": "function"
    },
    {
      "inputs": [
        {
          "internalType": "address",
          "name": "owner",
          "type": "address"
        },
        {
          "internalType": "uint256",
          "name": "index",
          "type": "uint256"
        }
      ],
      "name": "tokenOfOwnerByIndex",
      "outputs": [
        {
          "internalType": "uint256",
          "name": "",
          "type": "uint256"
        }
      ],
      "stateMutability": "view",
      "type": "function"
    },
    {
      "inputs": [
        {
          "internalType": "uint256",
          "name": "tokenId",
          "type": "uint256"
        }
      ],
      "name": "tokenURI",
      "outputs": [
        {
          "internalType": "string",
          "name": "",
          "type": "string"
        }
      ],
      "stateMutability": "view",
      "type": "function"
    },
    {
      "inputs": [],
      "name": "totalSupply",
      "outputs": [
        {
          "internalType": "uint256",
          "name": "",
          "type": "uint256"
        }
      ],
      "stateMutability": "view",
      "type": "function"
    },
    {
      "inputs": [
        {
          "internalType": "address",
          "name": "from",
          "type": "address"
        },
        {
          "internalType": "address",
          "name": "to",
          "type": "address"
        },
        {
          "internalType": "uint256",
          "name": "tokenId",
          "type": "uint256"
        }
      ],
      "name": "transferFrom",
      "outputs": [],
      "stateMutability": "nonpayable",
      "type": "function"
    },
    {
      "inputs": [
        {
          "internalType": "address",
          "name": "newOwner",
          "type": "address"
        }
      ],
      "name": "transferOwnership",
      "outputs": [],
      "stateMutability": "nonpayable",
      "type": "function"
    },
    {
      "inputs": [],
      "name": "trustedForwarder",
      "outputs": [
        {
          "internalType": "address",
          "name": "",
          "type": "address"
        }
      ],
      "stateMutability": "view",
      "type": "function"
    },
    {
      "inputs": [],
      "name": "versionRecipient",
      "outputs": [
        {
          "internalType": "string",
          "name": "",
          "type": "string"
        }
      ],
      "stateMutability": "view",
      "type": "function"
    },
    {
      "inputs": [
        {
          "internalType": "string",
          "name": "_props",
          "type": "string"
        },
        {
          "internalType": "int256",
          "name": "_templateIndex",
          "type": "int256"
        },
        {
          "internalType": "bool",
          "name": "_saveAsTemplate",
          "type": "bool"
        }
      ],
      "name": "createTicket",
      "outputs": [
        {
          "internalType": "uint256",
          "name": "",
          "type": "uint256"
        }
      ],
      "stateMutability": "payable",
      "type": "function"
    },
    {
      "inputs": [
        {
          "internalType": "uint256",
          "name": "_ticketId",
          "type": "uint256"
        },
        {
          "internalType": "string",
          "name": "_props",
          "type": "string"
        },
        {
          "internalType": "address",
          "name": "host",
          "type": "address"
        }
      ],
      "name": "createAccessToEvent",
      "outputs": [
        {
          "internalType": "bool",
          "name": "",
          "type": "bool"
        }
      ],
      "stateMutability": "nonpayable",
      "type": "function"
    },
    {
      "inputs": [
        {
          "internalType": "uint256",
          "name": "_ticketId",
          "type": "uint256"
        }
      ],
      "name": "expireExperience",
      "outputs": [],
      "stateMutability": "nonpayable",
      "type": "function"
    }
  ],
  "bytecode": "0x60806040526040518060400160405280600581526020017f322e302e30000000000000000000000000000000000000000000000000000000815250600d9080519060200190620000519291906200047e565b503480156200005f57600080fd5b5060405162007d9c38038062007d9c8339818101604052810190620000859190620005b3565b82826000620000996200030460201b60201c565b905080600160006101000a81548173ffffffffffffffffffffffffffffffffffffffff021916908373ffffffffffffffffffffffffffffffffffffffff1602179055508073ffffffffffffffffffffffffffffffffffffffff16600073ffffffffffffffffffffffffffffffffffffffff167f8be0079c531659141344cd1fd0a4f28419497f9722a3daafe3b4186f6b6457e060405160405180910390a350620001506301ffc9a760e01b6200034c60201b60201c565b8160089080519060200190620001689291906200047e565b508060099080519060200190620001819291906200047e565b506200019a6380ac58cd60e01b6200034c60201b60201c565b620001b2635b5e139f60e01b6200034c60201b60201c565b620001ca63780e9d6360e01b6200034c60201b60201c565b50506001600c81905550806000806101000a81548173ffffffffffffffffffffffffffffffffffffffff021916908373ffffffffffffffffffffffffffffffffffffffff160217905550604051620002229062000505565b604051809103906000f0801580156200023f573d6000803e3d6000fd5b50601360006101000a81548173ffffffffffffffffffffffffffffffffffffffff021916908373ffffffffffffffffffffffffffffffffffffffff1602179055506101f4604051620002919062000513565b6200029d91906200068e565b604051809103906000f080158015620002ba573d6000803e3d6000fd5b50601460006101000a81548173ffffffffffffffffffffffffffffffffffffffff021916908373ffffffffffffffffffffffffffffffffffffffff160217905550505050620007db565b6000601860003690501015801562000329575062000328336200042560201b60201c565b5b156200033f57601436033560601c905062000348565b33905062000349565b5b90565b63ffffffff60e01b817bffffffffffffffffffffffffffffffffffffffffffffffffffffffff19161415620003b8576040517f08c379a0000000000000000000000000000000000000000000000000000000008152600401620003af90620006ab565b60405180910390fd5b600160026000837bffffffffffffffffffffffffffffffffffffffffffffffffffffffff19167bffffffffffffffffffffffffffffffffffffffffffffffffffffffff1916815260200190815260200160002060006101000a81548160ff02191690831515021790555050565b60008060009054906101000a900473ffffffffffffffffffffffffffffffffffffffff1673ffffffffffffffffffffffffffffffffffffffff168273ffffffffffffffffffffffffffffffffffffffff16149050919050565b828054600181600116156101000203166002900490600052602060002090601f016020900481019282601f10620004c157805160ff1916838001178555620004f2565b82800160010185558215620004f2579182015b82811115620004f1578251825591602001919060010190620004d4565b5b50905062000501919062000521565b5090565b6115ce80620052ab83390190565b611523806200687983390190565b5b808211156200053c57600081600090555060010162000522565b5090565b6000815190506200055181620007c1565b92915050565b600082601f8301126200056957600080fd5b8151620005806200057a82620006fb565b620006cd565b915080825260208301602083018583830111156200059d57600080fd5b620005aa8382846200078b565b50505092915050565b600080600060608486031215620005c957600080fd5b600084015167ffffffffffffffff811115620005e457600080fd5b620005f28682870162000557565b935050602084015167ffffffffffffffff8111156200061057600080fd5b6200061e8682870162000557565b9250506040620006318682870162000540565b9150509250925092565b620006468162000777565b82525050565b60006200065b601c8362000728565b91507f4552433136353a20696e76616c696420696e74657266616365206964000000006000830152602082019050919050565b6000602082019050620006a560008301846200063b565b92915050565b60006020820190508181036000830152620006c6816200064c565b9050919050565b6000604051905081810181811067ffffffffffffffff82111715620006f157600080fd5b8060405250919050565b600067ffffffffffffffff8211156200071357600080fd5b601f19601f8301169050602081019050919050565b600082825260208201905092915050565b600062000746826200074d565b9050919050565b600073ffffffffffffffffffffffffffffffffffffffff82169050919050565b6000819050919050565b600062000784826200076d565b9050919050565b60005b83811015620007ab5780820151818401526020810190506200078e565b83811115620007bb576000848401525b50505050565b620007cc8162000739565b8114620007d857600080fd5b50565b614ac080620007eb6000396000f3fe6080604052600436106101d85760003560e01c80636c22f61011610102578063b83acc5311610095578063e985e9c511610064578063e985e9c514610711578063eef571a61461074e578063f2fde38b14610779578063fadf7ab0146107a2576101d8565b8063b83acc5314610643578063b88d4fde1461066e578063be8b3f6814610697578063c87b56dd146106d4576101d8565b806387bedcfb116100d157806387bedcfb146105875780638da5cb5b146105c457806395d89b41146105ef578063a22cb4651461061a576101d8565b80636c22f610146104cb57806370a0823114610508578063715018a6146105455780637da0a8771461055c576101d8565b80632f745c591161017a5780635074de35116101495780635074de35146103f6578063572b6c05146104265780636352211e146104635780636c0360eb146104a0576101d8565b80632f745c591461032857806342842e0e14610365578063486ff0cd1461038e5780634f6ccce7146103b9576101d8565b8063095ea7b3116101b6578063095ea7b31461028257806311da1e54146102ab57806318160ddd146102d457806323b872dd146102ff576101d8565b806301ffc9a7146101dd57806306fdde031461021a578063081812fc14610245575b600080fd5b3480156101e957600080fd5b5061020460048036038101906101ff919061351f565b6107df565b60405161021191906142c6565b60405180910390f35b34801561022657600080fd5b5061022f610847565b60405161023c9190614317565b60405180910390f35b34801561025157600080fd5b5061026c600480360381019061026791906135d8565b6108e9565b6040516102799190614206565b60405180910390f35b34801561028e57600080fd5b506102a960048036038101906102a491906134ba565b61096e565b005b3480156102b757600080fd5b506102d260048036038101906102cd91906135d8565b610a86565b005b3480156102e057600080fd5b506102e9610c72565b6040516102f691906146b9565b60405180910390f35b34801561030b57600080fd5b5061032660048036038101906103219190613360565b610c83565b005b34801561033457600080fd5b5061034f600480360381019061034a91906134ba565b610ce3565b60405161035c91906146b9565b60405180910390f35b34801561037157600080fd5b5061038c60048036038101906103879190613360565b610d3e565b005b34801561039a57600080fd5b506103a3610d5e565b6040516103b09190614317565b60405180910390f35b3480156103c557600080fd5b506103e060048036038101906103db91906135d8565b610dfc565b6040516103ed91906146b9565b60405180910390f35b610410600480360381019061040b9190613571565b610e1f565b60405161041d91906146b9565b60405180910390f35b34801561043257600080fd5b5061044d600480360381019061044891906132fb565b611334565b60405161045a91906142c6565b60405180910390f35b34801561046f57600080fd5b5061048a600480360381019061048591906135d8565b61138d565b6040516104979190614206565b60405180910390f35b3480156104ac57600080fd5b506104b56113c4565b6040516104c29190614317565b60405180910390f35b3480156104d757600080fd5b506104f260048036038101906104ed919061362a565b611466565b6040516104ff91906142c6565b60405180910390f35b34801561051457600080fd5b5061052f600480360381019061052a91906132fb565b61163d565b60405161053c91906146b9565b60405180910390f35b34801561055157600080fd5b5061055a6116fc565b005b34801561056857600080fd5b50610571611854565b60405161057e9190614206565b60405180910390f35b34801561059357600080fd5b506105ae60048036038101906105a991906135d8565b611878565b6040516105bb91906146b9565b60405180910390f35b3480156105d057600080fd5b506105d9611890565b6040516105e69190614206565b60405180910390f35b3480156105fb57600080fd5b506106046118ba565b6040516106119190614317565b60405180910390f35b34801561062657600080fd5b50610641600480360381019061063c919061342a565b61195c565b005b34801561064f57600080fd5b50610658611add565b60405161066591906142fc565b60405180910390f35b34801561067a57600080fd5b50610695600480360381019061069091906133af565b611b03565b005b3480156106a357600080fd5b506106be60048036038101906106b991906135d8565b611b65565b6040516106cb91906146b9565b60405180910390f35b3480156106e057600080fd5b506106fb60048036038101906106f691906135d8565b611b7d565b6040516107089190614317565b60405180910390f35b34801561071d57600080fd5b5061073860048036038101906107339190613324565b611d08565b60405161074591906142c6565b60405180910390f35b34801561075a57600080fd5b50610763611d9c565b60405161077091906142e1565b60405180910390f35b34801561078557600080fd5b506107a0600480360381019061079b91906132fb565b611dc2565b005b3480156107ae57600080fd5b506107c960048036038101906107c491906135d8565b611f89565b6040516107d691906142c6565b60405180910390f35b600060026000837bffffffffffffffffffffffffffffffffffffffffffffffffffffffff19167bffffffffffffffffffffffffffffffffffffffffffffffffffffffff1916815260200190815260200160002060009054906101000a900460ff169050919050565b606060088054600181600116156101000203166002900480601f0160208091040260200160405190810160405280929190818152602001828054600181600116156101000203166002900480156108df5780601f106108b4576101008083540402835291602001916108df565b820191906000526020600020905b8154815290600101906020018083116108c257829003601f168201915b5050505050905090565b60006108f482611fa9565b610933576040517f08c379a000000000000000000000000000000000000000000000000000000000815260040161092a90614539565b60405180910390fd5b6006600083815260200190815260200160002060009054906101000a900473ffffffffffffffffffffffffffffffffffffffff169050919050565b60006109798261138d565b90508073ffffffffffffffffffffffffffffffffffffffff168373ffffffffffffffffffffffffffffffffffffffff1614156109ea576040517f08c379a00000000000000000000000000000000000000000000000000000000081526004016109e1906145f9565b60405180910390fd5b8073ffffffffffffffffffffffffffffffffffffffff16610a09611fc6565b73ffffffffffffffffffffffffffffffffffffffff161480610a385750610a3781610a32611fc6565b611d08565b5b610a77576040517f08c379a0000000000000000000000000000000000000000000000000000000008152600401610a6e90614479565b60405180910390fd5b610a818383612002565b505050565b6002600c541415610acc576040517f08c379a0000000000000000000000000000000000000000000000000000000008152600401610ac390614679565b60405180910390fd5b6002600c81905550610ade600e6120bb565b811115610b20576040517f08c379a0000000000000000000000000000000000000000000000000000000008152600401610b17906144d9565b60405180910390fd5b60001515600f600083815260200190815260200160002060009054906101000a900460ff16151514610b87576040517f08c379a0000000000000000000000000000000000000000000000000000000008152600401610b7e906145d9565b60405180910390fd5b610b8f611fc6565b73ffffffffffffffffffffffffffffffffffffffff16610bae8261138d565b73ffffffffffffffffffffffffffffffffffffffff1614610c04576040517f08c379a0000000000000000000000000000000000000000000000000000000008152600401610bfb90614499565b60405180910390fd5b6001600f600083815260200190815260200160002060006101000a81548160ff0219169083151502179055507fc432839f0712eaa49b2945ec7930a3e3d81451f1c289bf854e828f86d515530181604051610c5f91906146b9565b60405180910390a16001600c8190555050565b6000610c7e60046120c9565b905090565b610c94610c8e611fc6565b826120de565b610cd3576040517f08c379a0000000000000000000000000000000000000000000000000000000008152600401610cca90614639565b60405180910390fd5b610cde8383836121bc565b505050565b6000610d3682600360008673ffffffffffffffffffffffffffffffffffffffff1673ffffffffffffffffffffffffffffffffffffffff1681526020019081526020016000206123d390919063ffffffff16565b905092915050565b610d5983838360405180602001604052806000815250611b03565b505050565b600d8054600181600116156101000203166002900480601f016020809104026020016040519081016040528092919081815260200182805460018160011615610100020316600290048015610df45780601f10610dc957610100808354040283529160200191610df4565b820191906000526020600020905b815481529060010190602001808311610dd757829003601f168201915b505050505081565b600080610e138360046123ed90919063ffffffff16565b50905080915050919050565b60006002600c541415610e67576040517f08c379a0000000000000000000000000000000000000000000000000000000008152600401610e5e90614679565b60405180910390fd5b6002600c81905550600083138015610e83575060011515821515145b15610ec3576040517f08c379a0000000000000000000000000000000000000000000000000000000008152600401610eba90614699565b60405180910390fd5b6000610ecd611fc6565b9050610ed9600e612419565b6000610ee5600e6120bb565b9050610ef1828261242f565b60008513610f0857610f0381876125bd565b61121f565b601360009054906101000a900473ffffffffffffffffffffffffffffffffffffffff1673ffffffffffffffffffffffffffffffffffffffff1663430e9f686040518163ffffffff1660e01b815260040160206040518083038186803b158015610f7057600080fd5b505afa158015610f84573d6000803e3d6000fd5b505050506040513d601f19601f82011682018060405250810190610fa89190613601565b8510156111e35760006060601360009054906101000a900473ffffffffffffffffffffffffffffffffffffffff1673ffffffffffffffffffffffffffffffffffffffff1663a20b8d5d886040518263ffffffff1660e01b815260040161100e91906146b9565b60006040518083038186803b15801561102657600080fd5b505afa15801561103a573d6000803e3d6000fd5b505050506040513d6000823e3d601f19601f820116820180604052508101906110639190613466565b9150915061107183826125bd565b8660116000858152602001908152602001600020819055506005601360009054906101000a900473ffffffffffffffffffffffffffffffffffffffff1673ffffffffffffffffffffffffffffffffffffffff1663314c1271896040518263ffffffff1660e01b81526004016110e691906146b9565b60206040518083038186803b1580156110fe57600080fd5b505afa158015611112573d6000803e3d6000fd5b505050506040513d601f19601f820116820180604052508101906111369190613601565b101561114f5761114e82670de0b6b3a7640000612631565b5b601360009054906101000a900473ffffffffffffffffffffffffffffffffffffffff1673ffffffffffffffffffffffffffffffffffffffff16637f61c5f4886040518263ffffffff1660e01b81526004016111aa91906146b9565b600060405180830381600087803b1580156111c457600080fd5b505af11580156111d8573d6000803e3d6000fd5b50505050505061121e565b6040517f08c379a000000000000000000000000000000000000000000000000000000000815260040161121590614379565b60405180910390fd5b5b6001151584151514156112e357601360009054906101000a900473ffffffffffffffffffffffffffffffffffffffff1673ffffffffffffffffffffffffffffffffffffffff1662d463c7611271611fc6565b886040518363ffffffff1660e01b815260040161128f92919061426d565b602060405180830381600087803b1580156112a957600080fd5b505af11580156112bd573d6000803e3d6000fd5b505050506040513d601f19601f820116820180604052508101906112e19190613601565b505b7f69d0b091bb40a707521cd69f4414de1d27e2e1a1ada0696dded2085ea7bd5c38818388886040516113189493929190614727565b60405180910390a180925050506001600c819055509392505050565b60008060009054906101000a900473ffffffffffffffffffffffffffffffffffffffff1673ffffffffffffffffffffffffffffffffffffffff168273ffffffffffffffffffffffffffffffffffffffff16149050919050565b60006113bd82604051806060016040528060298152602001614a6260299139600461271e9092919063ffffffff16565b9050919050565b6060600b8054600181600116156101000203166002900480601f01602080910402602001604051908101604052809291908181526020018280546001816001161561010002031660029004801561145c5780601f106114315761010080835404028352916020019161145c565b820191906000526020600020905b81548152906001019060200180831161143f57829003601f168201915b5050505050905090565b60006002600c5414156114ae576040517f08c379a00000000000000000000000000000000000000000000000000000000081526004016114a590614679565b60405180910390fd5b6002600c819055506114c0600e6120bb565b841115611502576040517f08c379a00000000000000000000000000000000000000000000000000000000081526004016114f990614359565b60405180910390fd5b60001515600f600086815260200190815260200160002060009054906101000a900460ff16151514611569576040517f08c379a000000000000000000000000000000000000000000000000000000000815260040161156090614619565b60405180910390fd5b611573600e612419565b600061157f600e6120bb565b905061158b600e612419565b6000611597600e6120bb565b90506115a3848361242f565b6115b56115af8761138d565b8261242f565b8560106000838152602001908152602001600020819055506115d782866125bd565b6115e181866125bd565b7f2ddfe7b6f9d2388d2be5c2c76a71d25099602a87f76cce9df46d331f926e4277868561160d8961138d565b85856040516116209594939291906146d4565b60405180910390a16001925050506001600c819055509392505050565b60008073ffffffffffffffffffffffffffffffffffffffff168273ffffffffffffffffffffffffffffffffffffffff1614156116ae576040517f08c379a00000000000000000000000000000000000000000000000000000000081526004016116a5906144b9565b60405180910390fd5b6116f5600360008473ffffffffffffffffffffffffffffffffffffffff1673ffffffffffffffffffffffffffffffffffffffff16815260200190815260200160002061273d565b9050919050565b611704611fc6565b73ffffffffffffffffffffffffffffffffffffffff16600160009054906101000a900473ffffffffffffffffffffffffffffffffffffffff1673ffffffffffffffffffffffffffffffffffffffff1614611793576040517f08c379a000000000000000000000000000000000000000000000000000000000815260040161178a90614579565b60405180910390fd5b600073ffffffffffffffffffffffffffffffffffffffff16600160009054906101000a900473ffffffffffffffffffffffffffffffffffffffff1673ffffffffffffffffffffffffffffffffffffffff167f8be0079c531659141344cd1fd0a4f28419497f9722a3daafe3b4186f6b6457e060405160405180910390a36000600160006101000a81548173ffffffffffffffffffffffffffffffffffffffff021916908373ffffffffffffffffffffffffffffffffffffffff160217905550565b60008054906101000a900473ffffffffffffffffffffffffffffffffffffffff1681565b60116020528060005260406000206000915090505481565b6000600160009054906101000a900473ffffffffffffffffffffffffffffffffffffffff16905090565b606060098054600181600116156101000203166002900480601f0160208091040260200160405190810160405280929190818152602001828054600181600116156101000203166002900480156119525780601f1061192757610100808354040283529160200191611952565b820191906000526020600020905b81548152906001019060200180831161193557829003601f168201915b5050505050905090565b611964611fc6565b73ffffffffffffffffffffffffffffffffffffffff168273ffffffffffffffffffffffffffffffffffffffff1614156119d2576040517f08c379a00000000000000000000000000000000000000000000000000000000081526004016119c990614419565b60405180910390fd5b80600760006119df611fc6565b73ffffffffffffffffffffffffffffffffffffffff1673ffffffffffffffffffffffffffffffffffffffff16815260200190815260200160002060008473ffffffffffffffffffffffffffffffffffffffff1673ffffffffffffffffffffffffffffffffffffffff16815260200190815260200160002060006101000a81548160ff0219169083151502179055508173ffffffffffffffffffffffffffffffffffffffff16611a8c611fc6565b73ffffffffffffffffffffffffffffffffffffffff167f17307eab39ab6107e8899845ad3d59bd9653f200f220920489ca2b5937696c3183604051611ad191906142c6565b60405180910390a35050565b601360009054906101000a900473ffffffffffffffffffffffffffffffffffffffff1681565b611b14611b0e611fc6565b836120de565b611b53576040517f08c379a0000000000000000000000000000000000000000000000000000000008152600401611b4a90614639565b60405180910390fd5b611b5f84848484612752565b50505050565b60106020528060005260406000206000915090505481565b6060611b8882611fa9565b611bc7576040517f08c379a0000000000000000000000000000000000000000000000000000000008152600401611bbe906145b9565b60405180910390fd5b6060600a60008481526020019081526020016000208054600181600116156101000203166002900480601f016020809104026020016040519081016040528092919081815260200182805460018160011615610100020316600290048015611c705780601f10611c4557610100808354040283529160200191611c70565b820191906000526020600020905b815481529060010190602001808311611c5357829003601f168201915b505050505090506000600b8054600181600116156101000203166002900490501415611c9f5780915050611d03565b600081511115611cd457600b81604051602001611cbd9291906141e2565b604051602081830303815290604052915050611d03565b600b611cdf846127ae565b604051602001611cf09291906141e2565b6040516020818303038152906040529150505b919050565b6000600760008473ffffffffffffffffffffffffffffffffffffffff1673ffffffffffffffffffffffffffffffffffffffff16815260200190815260200160002060008373ffffffffffffffffffffffffffffffffffffffff1673ffffffffffffffffffffffffffffffffffffffff16815260200190815260200160002060009054906101000a900460ff16905092915050565b601460009054906101000a900473ffffffffffffffffffffffffffffffffffffffff1681565b611dca611fc6565b73ffffffffffffffffffffffffffffffffffffffff16600160009054906101000a900473ffffffffffffffffffffffffffffffffffffffff1673ffffffffffffffffffffffffffffffffffffffff1614611e59576040517f08c379a0000000000000000000000000000000000000000000000000000000008152600401611e5090614579565b60405180910390fd5b600073ffffffffffffffffffffffffffffffffffffffff168173ffffffffffffffffffffffffffffffffffffffff161415611ec9576040517f08c379a0000000000000000000000000000000000000000000000000000000008152600401611ec0906143b9565b60405180910390fd5b8073ffffffffffffffffffffffffffffffffffffffff16600160009054906101000a900473ffffffffffffffffffffffffffffffffffffffff1673ffffffffffffffffffffffffffffffffffffffff167f8be0079c531659141344cd1fd0a4f28419497f9722a3daafe3b4186f6b6457e060405160405180910390a380600160006101000a81548173ffffffffffffffffffffffffffffffffffffffff021916908373ffffffffffffffffffffffffffffffffffffffff16021790555050565b600f6020528060005260406000206000915054906101000a900460ff1681565b6000611fbf8260046128f590919063ffffffff16565b9050919050565b60006018600036905010158015611fe25750611fe133611334565b5b15611ff657601436033560601c9050611ffe565b339050611fff565b5b90565b816006600083815260200190815260200160002060006101000a81548173ffffffffffffffffffffffffffffffffffffffff021916908373ffffffffffffffffffffffffffffffffffffffff160217905550808273ffffffffffffffffffffffffffffffffffffffff166120758361138d565b73ffffffffffffffffffffffffffffffffffffffff167f8c5be1e5ebec7d5bd14f71427d1e84f3dd0314c0f7b2291e5b200ac8c7c3b92560405160405180910390a45050565b600081600001549050919050565b60006120d78260000161290f565b9050919050565b60006120e982611fa9565b612128576040517f08c379a000000000000000000000000000000000000000000000000000000000815260040161211f90614459565b60405180910390fd5b60006121338361138d565b90508073ffffffffffffffffffffffffffffffffffffffff168473ffffffffffffffffffffffffffffffffffffffff1614806121a257508373ffffffffffffffffffffffffffffffffffffffff1661218a846108e9565b73ffffffffffffffffffffffffffffffffffffffff16145b806121b357506121b28185611d08565b5b91505092915050565b8273ffffffffffffffffffffffffffffffffffffffff166121dc8261138d565b73ffffffffffffffffffffffffffffffffffffffff1614612232576040517f08c379a000000000000000000000000000000000000000000000000000000000815260040161222990614599565b60405180910390fd5b600073ffffffffffffffffffffffffffffffffffffffff168273ffffffffffffffffffffffffffffffffffffffff1614156122a2576040517f08c379a0000000000000000000000000000000000000000000000000000000008152600401612299906143f9565b60405180910390fd5b6122ad838383612920565b6122b8600082612002565b61230981600360008673ffffffffffffffffffffffffffffffffffffffff1673ffffffffffffffffffffffffffffffffffffffff16815260200190815260200160002061292590919063ffffffff16565b5061235b81600360008573ffffffffffffffffffffffffffffffffffffffff1673ffffffffffffffffffffffffffffffffffffffff16815260200190815260200160002061293f90919063ffffffff16565b50612372818360046129599092919063ffffffff16565b50808273ffffffffffffffffffffffffffffffffffffffff168473ffffffffffffffffffffffffffffffffffffffff167fddf252ad1be2c89b69c2b068fc378daa952ba7f163c4a11628f55a4df523b3ef60405160405180910390a4505050565b60006123e2836000018361298e565b60001c905092915050565b60008060008061240086600001866129fb565b915091508160001c8160001c9350935050509250929050565b6001816000016000828254019250508190555050565b600073ffffffffffffffffffffffffffffffffffffffff168273ffffffffffffffffffffffffffffffffffffffff16141561249f576040517f08c379a000000000000000000000000000000000000000000000000000000000815260040161249690614519565b60405180910390fd5b6124a881611fa9565b156124e8576040517f08c379a00000000000000000000000000000000000000000000000000000000081526004016124df906143d9565b60405180910390fd5b6124f460008383612920565b61254581600360008573ffffffffffffffffffffffffffffffffffffffff1673ffffffffffffffffffffffffffffffffffffffff16815260200190815260200160002061293f90919063ffffffff16565b5061255c818360046129599092919063ffffffff16565b50808273ffffffffffffffffffffffffffffffffffffffff16600073ffffffffffffffffffffffffffffffffffffffff167fddf252ad1be2c89b69c2b068fc378daa952ba7f163c4a11628f55a4df523b3ef60405160405180910390a45050565b6125c682611fa9565b612605576040517f08c379a00000000000000000000000000000000000000000000000000000000081526004016125fc90614559565b60405180910390fd5b80600a6000848152602001908152602001600020908051906020019061262c9291906130a5565b505050565b601460009054906101000a900473ffffffffffffffffffffffffffffffffffffffff1673ffffffffffffffffffffffffffffffffffffffff1663a9059cbb83836040518363ffffffff1660e01b815260040161268e92919061429d565b602060405180830381600087803b1580156126a857600080fd5b505af11580156126bc573d6000803e3d6000fd5b505050506040513d601f19601f820116820180604052508101906126e091906134f6565b507f6c114f03096d92b098f0f087d8fd4a756d362d86a9649a07142404e7fd1d77b5828260405161271292919061429d565b60405180910390a15050565b6000612731846000018460001b84612a7e565b60001c90509392505050565b600061274b82600001612b0f565b9050919050565b61275d8484846121bc565b61276984848484612b20565b6127a8576040517f08c379a000000000000000000000000000000000000000000000000000000000815260040161279f90614399565b60405180910390fd5b50505050565b606060008214156127f6576040518060400160405280600181526020017f300000000000000000000000000000000000000000000000000000000000000081525090506128f0565b600082905060005b60008214612820578080600101915050600a828161281857fe5b0491506127fe565b60608167ffffffffffffffff8111801561283957600080fd5b506040519080825280601f01601f19166020018201604052801561286c5781602001600182028036833780820191505090505b50905060006001830390508593505b600084146128e857600a848161288d57fe5b0660300160f81b828280600190039350815181106128a757fe5b60200101907effffffffffffffffffffffffffffffffffffffffffffffffffffffffffffff1916908160001a905350600a84816128e057fe5b04935061287b565b819450505050505b919050565b6000612907836000018360001b612c84565b905092915050565b600081600001805490509050919050565b505050565b6000612937836000018360001b612ca7565b905092915050565b6000612951836000018360001b612d8f565b905092915050565b6000612985846000018460001b8473ffffffffffffffffffffffffffffffffffffffff1660001b612dff565b90509392505050565b6000818360000180549050116129d9576040517f08c379a00000000000000000000000000000000000000000000000000000000081526004016129d090614339565b60405180910390fd5b8260000182815481106129e857fe5b9060005260206000200154905092915050565b60008082846000018054905011612a47576040517f08c379a0000000000000000000000000000000000000000000000000000000008152600401612a3e906144f9565b60405180910390fd5b6000846000018481548110612a5857fe5b906000526020600020906002020190508060000154816001015492509250509250929050565b60008084600101600085815260200190815260200160002054905060008114158390612ae0576040517f08c379a0000000000000000000000000000000000000000000000000000000008152600401612ad79190614317565b60405180910390fd5b50846000016001820381548110612af357fe5b9060005260206000209060020201600101549150509392505050565b600081600001805490509050919050565b6000612b418473ffffffffffffffffffffffffffffffffffffffff16612edb565b612b4e5760019050612c7c565b6060612c1563150b7a0260e01b612b63611fc6565b888787604051602401612b799493929190614221565b604051602081830303815290604052907bffffffffffffffffffffffffffffffffffffffffffffffffffffffff19166020820180517bffffffffffffffffffffffffffffffffffffffffffffffffffffffff8381831617835250505050604051806060016040528060328152602001614a30603291398773ffffffffffffffffffffffffffffffffffffffff16612eee9092919063ffffffff16565b9050600081806020019051810190612c2d9190613548565b905063150b7a0260e01b7bffffffffffffffffffffffffffffffffffffffffffffffffffffffff1916817bffffffffffffffffffffffffffffffffffffffffffffffffffffffff191614925050505b949350505050565b600080836001016000848152602001908152602001600020541415905092915050565b60008083600101600084815260200190815260200160002054905060008114612d835760006001820390506000600186600001805490500390506000866000018281548110612cf257fe5b9060005260206000200154905080876000018481548110612d0f57fe5b9060005260206000200181905550600183018760010160008381526020019081526020016000208190555086600001805480612d4757fe5b60019003818190600052602060002001600090559055866001016000878152602001908152602001600020600090556001945050505050612d89565b60009150505b92915050565b6000612d9b8383612f06565b612df4578260000182908060018154018082558091505060019003906000526020600020016000909190919091505582600001805490508360010160008481526020019081526020016000208190555060019050612df9565b600090505b92915050565b6000808460010160008581526020019081526020016000205490506000811415612ea657846000016040518060400160405280868152602001858152509080600181540180825580915050600190039060005260206000209060020201600090919091909150600082015181600001556020820151816001015550508460000180549050856001016000868152602001908152602001600020819055506001915050612ed4565b82856000016001830381548110612eb957fe5b90600052602060002090600202016001018190555060009150505b9392505050565b600080823b905060008111915050919050565b6060612efd8484600085612f29565b90509392505050565b600080836001016000848152602001908152602001600020541415905092915050565b606082471015612f6e576040517f08c379a0000000000000000000000000000000000000000000000000000000008152600401612f6590614439565b60405180910390fd5b612f7785612edb565b612fb6576040517f08c379a0000000000000000000000000000000000000000000000000000000008152600401612fad90614659565b60405180910390fd5b600060608673ffffffffffffffffffffffffffffffffffffffff168587604051612fe091906141cb565b60006040518083038185875af1925050503d806000811461301d576040519150601f19603f3d011682016040523d82523d6000602084013e613022565b606091505b509150915061303282828661303e565b92505050949350505050565b6060831561304e5782905061309e565b6000835111156130615782518084602001fd5b816040517f08c379a00000000000000000000000000000000000000000000000000000000081526004016130959190614317565b60405180910390fd5b9392505050565b828054600181600116156101000203166002900490600052602060002090601f016020900481019282601f106130e657805160ff1916838001178555613114565b82800160010185558215613114579182015b828111156131135782518255916020019190600101906130f8565b5b5090506131219190613125565b5090565b5b8082111561313e576000816000905550600101613126565b5090565b600081359050613151816149bc565b92915050565b600081519050613166816149bc565b92915050565b60008135905061317b816149d3565b92915050565b600081519050613190816149d3565b92915050565b6000813590506131a5816149ea565b92915050565b6000815190506131ba816149ea565b92915050565b600082601f8301126131d157600080fd5b81356131e46131df826147a0565b614773565b9150808252602083016020830185838301111561320057600080fd5b61320b838284614969565b50505092915050565b60008135905061322381614a01565b92915050565b600082601f83011261323a57600080fd5b813561324d613248826147cc565b614773565b9150808252602083016020830185838301111561326957600080fd5b613274838284614969565b50505092915050565b600082601f83011261328e57600080fd5b81516132a161329c826147cc565b614773565b915080825260208301602083018583830111156132bd57600080fd5b6132c8838284614978565b50505092915050565b6000813590506132e081614a18565b92915050565b6000815190506132f581614a18565b92915050565b60006020828403121561330d57600080fd5b600061331b84828501613142565b91505092915050565b6000806040838503121561333757600080fd5b600061334585828601613142565b925050602061335685828601613142565b9150509250929050565b60008060006060848603121561337557600080fd5b600061338386828701613142565b935050602061339486828701613142565b92505060406133a5868287016132d1565b9150509250925092565b600080600080608085870312156133c557600080fd5b60006133d387828801613142565b94505060206133e487828801613142565b93505060406133f5878288016132d1565b925050606085013567ffffffffffffffff81111561341257600080fd5b61341e878288016131c0565b91505092959194509250565b6000806040838503121561343d57600080fd5b600061344b85828601613142565b925050602061345c8582860161316c565b9150509250929050565b6000806040838503121561347957600080fd5b600061348785828601613157565b925050602083015167ffffffffffffffff8111156134a457600080fd5b6134b08582860161327d565b9150509250929050565b600080604083850312156134cd57600080fd5b60006134db85828601613142565b92505060206134ec858286016132d1565b9150509250929050565b60006020828403121561350857600080fd5b600061351684828501613181565b91505092915050565b60006020828403121561353157600080fd5b600061353f84828501613196565b91505092915050565b60006020828403121561355a57600080fd5b6000613568848285016131ab565b91505092915050565b60008060006060848603121561358657600080fd5b600084013567ffffffffffffffff8111156135a057600080fd5b6135ac86828701613229565b93505060206135bd86828701613214565b92505060406135ce8682870161316c565b9150509250925092565b6000602082840312156135ea57600080fd5b60006135f8848285016132d1565b91505092915050565b60006020828403121561361357600080fd5b6000613621848285016132e6565b91505092915050565b60008060006060848603121561363f57600080fd5b600061364d868287016132d1565b935050602084013567ffffffffffffffff81111561366a57600080fd5b61367686828701613229565b925050604061368786828701613142565b9150509250925092565b61369a816148eb565b82525050565b6136a98161486d565b82525050565b6136b88161485b565b82525050565b6136c78161487f565b82525050565b60006136d88261480d565b6136e28185614823565b93506136f2818560208601614978565b6136fb816149ab565b840191505092915050565b60006137118261480d565b61371b8185614834565b935061372b818560208601614978565b80840191505092915050565b613740816148fd565b82525050565b61374f81614921565b82525050565b61375e816148b7565b82525050565b600061376f82614818565b613779818561483f565b9350613789818560208601614978565b613792816149ab565b840191505092915050565b60006137a882614818565b6137b28185614850565b93506137c2818560208601614978565b80840191505092915050565b6000815460018116600081146137eb576001811461381057613854565b607f60028304166137fc8187614850565b955060ff1983168652808601935050613854565b6002820461381e8187614850565b9550613829856147f8565b60005b8281101561384b5781548189015260018201915060208101905061382c565b82880195505050505b505092915050565b600061386960228361483f565b91507f456e756d657261626c655365743a20696e646578206f7574206f6620626f756e60008301527f64730000000000000000000000000000000000000000000000000000000000006020830152604082019050919050565b60006138cf60178361483f565b91507f6e6f207375636820657870657269656e636520636172640000000000000000006000830152602082019050919050565b600061390f601f8361483f565b91507f496e76616c69642074656d706c61746520696e6465782070726f7669646564006000830152602082019050919050565b600061394f60328361483f565b91507f4552433732313a207472616e7366657220746f206e6f6e20455243373231526560008301527f63656976657220696d706c656d656e74657200000000000000000000000000006020830152604082019050919050565b60006139b560268361483f565b91507f4f776e61626c653a206e6577206f776e657220697320746865207a65726f206160008301527f64647265737300000000000000000000000000000000000000000000000000006020830152604082019050919050565b6000613a1b601c8361483f565b91507f4552433732313a20746f6b656e20616c7265616479206d696e746564000000006000830152602082019050919050565b6000613a5b60248361483f565b91507f4552433732313a207472616e7366657220746f20746865207a65726f2061646460008301527f72657373000000000000000000000000000000000000000000000000000000006020830152604082019050919050565b6000613ac160198361483f565b91507f4552433732313a20617070726f766520746f2063616c6c6572000000000000006000830152602082019050919050565b6000613b0160268361483f565b91507f416464726573733a20696e73756666696369656e742062616c616e636520666f60008301527f722063616c6c00000000000000000000000000000000000000000000000000006020830152604082019050919050565b6000613b67602c8361483f565b91507f4552433732313a206f70657261746f7220717565727920666f72206e6f6e657860008301527f697374656e7420746f6b656e00000000000000000000000000000000000000006020830152604082019050919050565b6000613bcd60388361483f565b91507f4552433732313a20617070726f76652063616c6c6572206973206e6f74206f7760008301527f6e6572206e6f7220617070726f76656420666f7220616c6c00000000000000006020830152604082019050919050565b6000613c33601f8361483f565b91507f4f6e6c79206f776e6572206f66204e46542063616e20657870697265206974006000830152602082019050919050565b6000613c73602a8361483f565b91507f4552433732313a2062616c616e636520717565727920666f7220746865207a6560008301527f726f2061646472657373000000000000000000000000000000000000000000006020830152604082019050919050565b6000613cd960188361483f565b91507f6e6f207375636820657870657269656e636520746f6b656e00000000000000006000830152602082019050919050565b6000613d1960228361483f565b91507f456e756d657261626c654d61703a20696e646578206f7574206f6620626f756e60008301527f64730000000000000000000000000000000000000000000000000000000000006020830152604082019050919050565b6000613d7f60208361483f565b91507f4552433732313a206d696e7420746f20746865207a65726f20616464726573736000830152602082019050919050565b6000613dbf602c8361483f565b91507f4552433732313a20617070726f76656420717565727920666f72206e6f6e657860008301527f697374656e7420746f6b656e00000000000000000000000000000000000000006020830152604082019050919050565b6000613e25602c8361483f565b91507f4552433732314d657461646174613a2055524920736574206f66206e6f6e657860008301527f697374656e7420746f6b656e00000000000000000000000000000000000000006020830152604082019050919050565b6000613e8b60208361483f565b91507f4f776e61626c653a2063616c6c6572206973206e6f7420746865206f776e65726000830152602082019050919050565b6000613ecb60298361483f565b91507f4552433732313a207472616e73666572206f6620746f6b656e2074686174206960008301527f73206e6f74206f776e00000000000000000000000000000000000000000000006020830152604082019050919050565b6000613f31602f8361483f565b91507f4552433732314d657461646174613a2055524920717565727920666f72206e6f60008301527f6e6578697374656e7420746f6b656e00000000000000000000000000000000006020830152604082019050919050565b6000613f97601a8361483f565b91507f657870657269656e636520616c726561647920657870697265640000000000006000830152602082019050919050565b6000613fd760218361483f565b91507f4552433732313a20617070726f76616c20746f2063757272656e74206f776e6560008301527f72000000000000000000000000000000000000000000000000000000000000006020830152604082019050919050565b600061403d60128361483f565b91507f657870657269656e6365206578706972656400000000000000000000000000006000830152602082019050919050565b600061407d60318361483f565b91507f4552433732313a207472616e736665722063616c6c6572206973206e6f74206f60008301527f776e6572206e6f7220617070726f7665640000000000000000000000000000006020830152604082019050919050565b60006140e3601d8361483f565b91507f416464726573733a2063616c6c20746f206e6f6e2d636f6e74726163740000006000830152602082019050919050565b6000614123601f8361483f565b91507f5265656e7472616e637947756172643a207265656e7472616e742063616c6c006000830152602082019050919050565b6000614163603e8361483f565b91507f596f752063616e277420736176652061206361726420617320612074656d706c60008301527f617465206966206974277320616c726561647920612074656d706c61746500006020830152604082019050919050565b6141c5816148e1565b82525050565b60006141d78284613706565b915081905092915050565b60006141ee82856137ce565b91506141fa828461379d565b91508190509392505050565b600060208201905061421b60008301846136af565b92915050565b600060808201905061423660008301876136a0565b61424360208301866136af565b61425060408301856141bc565b818103606083015261426281846136cd565b905095945050505050565b60006040820190506142826000830185613691565b81810360208301526142948184613764565b90509392505050565b60006040820190506142b260008301856136af565b6142bf60208301846141bc565b9392505050565b60006020820190506142db60008301846136be565b92915050565b60006020820190506142f66000830184613737565b92915050565b60006020820190506143116000830184613746565b92915050565b600060208201905081810360008301526143318184613764565b905092915050565b600060208201905081810360008301526143528161385c565b9050919050565b60006020820190508181036000830152614372816138c2565b9050919050565b6000602082019050818103600083015261439281613902565b9050919050565b600060208201905081810360008301526143b281613942565b9050919050565b600060208201905081810360008301526143d2816139a8565b9050919050565b600060208201905081810360008301526143f281613a0e565b9050919050565b6000602082019050818103600083015261441281613a4e565b9050919050565b6000602082019050818103600083015261443281613ab4565b9050919050565b6000602082019050818103600083015261445281613af4565b9050919050565b6000602082019050818103600083015261447281613b5a565b9050919050565b6000602082019050818103600083015261449281613bc0565b9050919050565b600060208201905081810360008301526144b281613c26565b9050919050565b600060208201905081810360008301526144d281613c66565b9050919050565b600060208201905081810360008301526144f281613ccc565b9050919050565b6000602082019050818103600083015261451281613d0c565b9050919050565b6000602082019050818103600083015261453281613d72565b9050919050565b6000602082019050818103600083015261455281613db2565b9050919050565b6000602082019050818103600083015261457281613e18565b9050919050565b6000602082019050818103600083015261459281613e7e565b9050919050565b600060208201905081810360008301526145b281613ebe565b9050919050565b600060208201905081810360008301526145d281613f24565b9050919050565b600060208201905081810360008301526145f281613f8a565b9050919050565b6000602082019050818103600083015261461281613fca565b9050919050565b6000602082019050818103600083015261463281614030565b9050919050565b6000602082019050818103600083015261465281614070565b9050919050565b60006020820190508181036000830152614672816140d6565b9050919050565b6000602082019050818103600083015261469281614116565b9050919050565b600060208201905081810360008301526146b281614156565b9050919050565b60006020820190506146ce60008301846141bc565b92915050565b600060a0820190506146e960008301886141bc565b6146f660208301876136af565b61470360408301866136af565b61471060608301856141bc565b61471d60808301846141bc565b9695505050505050565b600060808201905061473c60008301876141bc565b61474960208301866136af565b818103604083015261475b8185613764565b905061476a6060830184613755565b95945050505050565b6000604051905081810181811067ffffffffffffffff8211171561479657600080fd5b8060405250919050565b600067ffffffffffffffff8211156147b757600080fd5b601f19601f8301169050602081019050919050565b600067ffffffffffffffff8211156147e357600080fd5b601f19601f8301169050602081019050919050565b60008190508160005260206000209050919050565b600081519050919050565b600081519050919050565b600082825260208201905092915050565b600081905092915050565b600082825260208201905092915050565b600081905092915050565b6000614866826148c1565b9050919050565b6000614878826148c1565b9050919050565b60008115159050919050565b60007fffffffff0000000000000000000000000000000000000000000000000000000082169050919050565b6000819050919050565b600073ffffffffffffffffffffffffffffffffffffffff82169050919050565b6000819050919050565b60006148f682614945565b9050919050565b60006149088261490f565b9050919050565b600061491a826148c1565b9050919050565b600061492c82614933565b9050919050565b600061493e826148c1565b9050919050565b600061495082614957565b9050919050565b6000614962826148c1565b9050919050565b82818337600083830152505050565b60005b8381101561499657808201518184015260208101905061497b565b838111156149a5576000848401525b50505050565b6000601f19601f8301169050919050565b6149c58161485b565b81146149d057600080fd5b50565b6149dc8161487f565b81146149e757600080fd5b50565b6149f38161488b565b81146149fe57600080fd5b50565b614a0a816148b7565b8114614a1557600080fd5b50565b614a21816148e1565b8114614a2c57600080fd5b5056fe4552433732313a207472616e7366657220746f206e6f6e20455243373231526563656976657220696d706c656d656e7465724552433732313a206f776e657220717565727920666f72206e6f6e6578697374656e7420746f6b656ea264697066735822122044f9bb8b1d8bc6feace5ca65fbe5599d4f52de70549e7812c75c2e927443150864736f6c634300060c003360806040523480156200001157600080fd5b50600062000024620001ab60201b60201c565b9050806000806101000a81548173ffffffffffffffffffffffffffffffffffffffff021916908373ffffffffffffffffffffffffffffffffffffffff1602179055508073ffffffffffffffffffffffffffffffffffffffff16600073ffffffffffffffffffffffffffffffffffffffff167f8be0079c531659141344cd1fd0a4f28419497f9722a3daafe3b4186f6b6457e060405160405180910390a35060018081905550620000d3620001b3565b6040518060400160405280600073ffffffffffffffffffffffffffffffffffffffff168152602001604051806020016040528060008152508152509050600681908060018154018082558091505060019003906000526020600020906002020160009091909190915060008201518160000160006101000a81548173ffffffffffffffffffffffffffffffffffffffff021916908373ffffffffffffffffffffffffffffffffffffffff1602179055506020820151816001019080519060200190620001a1929190620001e3565b5050505062000289565b600033905090565b6040518060400160405280600073ffffffffffffffffffffffffffffffffffffffff168152602001606081525090565b828054600181600116156101000203166002900490600052602060002090601f016020900481019282601f106200022657805160ff191683800117855562000257565b8280016001018555821562000257579182015b828111156200025657825182559160200191906001019062000239565b5b5090506200026691906200026a565b5090565b5b80821115620002855760008160009055506001016200026b565b5090565b61133580620002996000396000f3fe608060405234801561001057600080fd5b50600436106100b35760003560e01c806387bedcfb1161007157806387bedcfb1461017a5780638da5cb5b146101aa578063a20b8d5d146101c8578063be8b3f68146101f9578063f2fde38b14610229578063fadf7ab014610245576100b3565b8062d463c7146100b8578063314c1271146100e8578063430e9f681461011857806365ff4e3114610136578063715018a6146101545780637f61c5f41461015e575b600080fd5b6100d260048036038101906100cd9190610d3d565b610275565b6040516100df919061115c565b60405180910390f35b61010260048036038101906100fd9190610d91565b61043a565b60405161010f919061115c565b60405180910390f35b610120610452565b60405161012d919061115c565b60405180910390f35b61013e61045f565b60405161014b919061109f565b60405180910390f35b61015c61061f565b005b61017860048036038101906101739190610d91565b610772565b005b610194600480360381019061018f9190610d91565b610848565b6040516101a1919061115c565b60405180910390f35b6101b2610860565b6040516101bf9190611054565b60405180910390f35b6101e260048036038101906101dd9190610d91565b610889565b6040516101f092919061106f565b60405180910390f35b610213600480360381019061020e9190610d91565b610972565b604051610220919061115c565b60405180910390f35b610243600480360381019061023e9190610d14565b61098a565b005b61025f600480360381019061025a9190610d91565b610b4c565b60405161026c91906110c1565b60405180910390f35b600061027f610b6c565b73ffffffffffffffffffffffffffffffffffffffff1660008054906101000a900473ffffffffffffffffffffffffffffffffffffffff1673ffffffffffffffffffffffffffffffffffffffff161461030c576040517f08c379a00000000000000000000000000000000000000000000000000000000081526004016103039061111c565b60405180910390fd5b60026001541415610352576040517f08c379a00000000000000000000000000000000000000000000000000000000081526004016103499061113c565b60405180910390fd5b6002600181905550610362610bc9565b60405180604001604052808573ffffffffffffffffffffffffffffffffffffffff168152602001848152509050600681908060018154018082558091505060019003906000526020600020906002020160009091909190915060008201518160000160006101000a81548173ffffffffffffffffffffffffffffffffffffffff021916908373ffffffffffffffffffffffffffffffffffffffff160217905550602082015181600101908051906020019061041e929190610bf9565b5050506001600680549050039150506001808190555092915050565b60056020528060005260406000206000915090505481565b6000600680549050905090565b60608060016006805490500367ffffffffffffffff8111801561048157600080fd5b506040519080825280602002602001820160405280156104bb57816020015b6104a8610bc9565b8152602001906001900390816104a05790505b5090506000600190505b60068054905081101561061757600681815481106104df57fe5b90600052602060002090600202016040518060400160405290816000820160009054906101000a900473ffffffffffffffffffffffffffffffffffffffff1673ffffffffffffffffffffffffffffffffffffffff1673ffffffffffffffffffffffffffffffffffffffff168152602001600182018054600181600116156101000203166002900480601f0160208091040260200160405190810160405280929190818152602001828054600181600116156101000203166002900480156105e75780601f106105bc576101008083540402835291602001916105e7565b820191906000526020600020905b8154815290600101906020018083116105ca57829003601f168201915b5050505050815250508260018303815181106105ff57fe5b602002602001018190525080806001019150506104c5565b508091505090565b610627610b6c565b73ffffffffffffffffffffffffffffffffffffffff1660008054906101000a900473ffffffffffffffffffffffffffffffffffffffff1673ffffffffffffffffffffffffffffffffffffffff16146106b4576040517f08c379a00000000000000000000000000000000000000000000000000000000081526004016106ab9061111c565b60405180910390fd5b600073ffffffffffffffffffffffffffffffffffffffff1660008054906101000a900473ffffffffffffffffffffffffffffffffffffffff1673ffffffffffffffffffffffffffffffffffffffff167f8be0079c531659141344cd1fd0a4f28419497f9722a3daafe3b4186f6b6457e060405160405180910390a360008060006101000a81548173ffffffffffffffffffffffffffffffffffffffff021916908373ffffffffffffffffffffffffffffffffffffffff160217905550565b61077a610b6c565b73ffffffffffffffffffffffffffffffffffffffff1660008054906101000a900473ffffffffffffffffffffffffffffffffffffffff1673ffffffffffffffffffffffffffffffffffffffff1614610807576040517f08c379a00000000000000000000000000000000000000000000000000000000081526004016107fe9061111c565b60405180910390fd5b61082e60016005600084815260200190815260200160002054610b7490919063ffffffff16565b600560008381526020019081526020016000208190555050565b60046020528060005260406000206000915090505481565b60008060009054906101000a900473ffffffffffffffffffffffffffffffffffffffff16905090565b6006818154811061089657fe5b90600052602060002090600202016000915090508060000160009054906101000a900473ffffffffffffffffffffffffffffffffffffffff1690806001018054600181600116156101000203166002900480601f0160208091040260200160405190810160405280929190818152602001828054600181600116156101000203166002900480156109685780601f1061093d57610100808354040283529160200191610968565b820191906000526020600020905b81548152906001019060200180831161094b57829003601f168201915b5050505050905082565b60036020528060005260406000206000915090505481565b610992610b6c565b73ffffffffffffffffffffffffffffffffffffffff1660008054906101000a900473ffffffffffffffffffffffffffffffffffffffff1673ffffffffffffffffffffffffffffffffffffffff1614610a1f576040517f08c379a0000000000000000000000000000000000000000000000000000000008152600401610a169061111c565b60405180910390fd5b600073ffffffffffffffffffffffffffffffffffffffff168173ffffffffffffffffffffffffffffffffffffffff161415610a8f576040517f08c379a0000000000000000000000000000000000000000000000000000000008152600401610a86906110dc565b60405180910390fd5b8073ffffffffffffffffffffffffffffffffffffffff1660008054906101000a900473ffffffffffffffffffffffffffffffffffffffff1673ffffffffffffffffffffffffffffffffffffffff167f8be0079c531659141344cd1fd0a4f28419497f9722a3daafe3b4186f6b6457e060405160405180910390a3806000806101000a81548173ffffffffffffffffffffffffffffffffffffffff021916908373ffffffffffffffffffffffffffffffffffffffff16021790555050565b60026020528060005260406000206000915054906101000a900460ff1681565b600033905090565b600080828401905083811015610bbf576040517f08c379a0000000000000000000000000000000000000000000000000000000008152600401610bb6906110fc565b60405180910390fd5b8091505092915050565b6040518060400160405280600073ffffffffffffffffffffffffffffffffffffffff168152602001606081525090565b828054600181600116156101000203166002900490600052602060002090601f016020900481019282601f10610c3a57805160ff1916838001178555610c68565b82800160010185558215610c68579182015b82811115610c67578251825591602001919060010190610c4c565b5b509050610c759190610c79565b5090565b5b80821115610c92576000816000905550600101610c7a565b5090565b600081359050610ca5816112d1565b92915050565b600082601f830112610cbc57600080fd5b8135610ccf610cca826111a4565b611177565b91508082526020830160208301858383011115610ceb57600080fd5b610cf683828461127e565b50505092915050565b600081359050610d0e816112e8565b92915050565b600060208284031215610d2657600080fd5b6000610d3484828501610c96565b91505092915050565b60008060408385031215610d5057600080fd5b6000610d5e85828601610c96565b925050602083013567ffffffffffffffff811115610d7b57600080fd5b610d8785828601610cab565b9150509250929050565b600060208284031215610da357600080fd5b6000610db184828501610cff565b91505092915050565b6000610dc68383611008565b905092915050565b610dd781611236565b82525050565b610de681611236565b82525050565b6000610df7826111e0565b610e018185611203565b935083602082028501610e13856111d0565b8060005b85811015610e4f5784840389528151610e308582610dba565b9450610e3b836111f6565b925060208a01995050600181019050610e17565b50829750879550505050505092915050565b610e6a81611248565b82525050565b6000610e7b826111eb565b610e858185611214565b9350610e9581856020860161128d565b610e9e816112c0565b840191505092915050565b6000610eb4826111eb565b610ebe8185611225565b9350610ece81856020860161128d565b610ed7816112c0565b840191505092915050565b6000610eef602683611225565b91507f4f776e61626c653a206e6577206f776e657220697320746865207a65726f206160008301527f64647265737300000000000000000000000000000000000000000000000000006020830152604082019050919050565b6000610f55601b83611225565b91507f536166654d6174683a206164646974696f6e206f766572666c6f7700000000006000830152602082019050919050565b6000610f95602083611225565b91507f4f776e61626c653a2063616c6c6572206973206e6f7420746865206f776e65726000830152602082019050919050565b6000610fd5601f83611225565b91507f5265656e7472616e637947756172643a207265656e7472616e742063616c6c006000830152602082019050919050565b60006040830160008301516110206000860182610dce565b50602083015184820360208601526110388282610e70565b9150508091505092915050565b61104e81611274565b82525050565b60006020820190506110696000830184610ddd565b92915050565b60006040820190506110846000830185610ddd565b81810360208301526110968184610ea9565b90509392505050565b600060208201905081810360008301526110b98184610dec565b905092915050565b60006020820190506110d66000830184610e61565b92915050565b600060208201905081810360008301526110f581610ee2565b9050919050565b6000602082019050818103600083015261111581610f48565b9050919050565b6000602082019050818103600083015261113581610f88565b9050919050565b6000602082019050818103600083015261115581610fc8565b9050919050565b60006020820190506111716000830184611045565b92915050565b6000604051905081810181811067ffffffffffffffff8211171561119a57600080fd5b8060405250919050565b600067ffffffffffffffff8211156111bb57600080fd5b601f19601f8301169050602081019050919050565b6000819050602082019050919050565b600081519050919050565b600081519050919050565b6000602082019050919050565b600082825260208201905092915050565b600082825260208201905092915050565b600082825260208201905092915050565b600061124182611254565b9050919050565b60008115159050919050565b600073ffffffffffffffffffffffffffffffffffffffff82169050919050565b6000819050919050565b82818337600083830152505050565b60005b838110156112ab578082015181840152602081019050611290565b838111156112ba576000848401525b50505050565b6000601f19601f8301169050919050565b6112da81611236565b81146112e557600080fd5b50565b6112f181611274565b81146112fc57600080fd5b5056fea2646970667358221220fe5a342babd618fda64324cbba19db88f8a8bfc7fe15653e12bfa45b1b4deb3b64736f6c634300060c003360806040523480156200001157600080fd5b506040516200152338038062001523833981810160405260208110156200003757600080fd5b81019080805190602001909291905050506040518060400160405280600f81526020017f496e746f6f545620526f79616c747900000000000000000000000000000000008152506040518060400160405280600481526020017f524c5459000000000000000000000000000000000000000000000000000000008152508160039080519060200190620000cc92919062000389565b508060049080519060200190620000e592919062000389565b506012600560006101000a81548160ff021916908360ff16021790555050506200011633826200011d60201b60201c565b506200042f565b600073ffffffffffffffffffffffffffffffffffffffff168273ffffffffffffffffffffffffffffffffffffffff161415620001c1576040517f08c379a000000000000000000000000000000000000000000000000000000000815260040180806020018281038252601f8152602001807f45524332303a206d696e7420746f20746865207a65726f20616464726573730081525060200191505060405180910390fd5b620001d560008383620002fb60201b60201c565b620001f1816002546200030060201b620009a01790919060201c565b6002819055506200024f816000808573ffffffffffffffffffffffffffffffffffffffff1673ffffffffffffffffffffffffffffffffffffffff168152602001908152602001600020546200030060201b620009a01790919060201c565b6000808473ffffffffffffffffffffffffffffffffffffffff1673ffffffffffffffffffffffffffffffffffffffff168152602001908152602001600020819055508173ffffffffffffffffffffffffffffffffffffffff16600073ffffffffffffffffffffffffffffffffffffffff167fddf252ad1be2c89b69c2b068fc378daa952ba7f163c4a11628f55a4df523b3ef836040518082815260200191505060405180910390a35050565b505050565b6000808284019050838110156200037f576040517f08c379a000000000000000000000000000000000000000000000000000000000815260040180806020018281038252601b8152602001807f536166654d6174683a206164646974696f6e206f766572666c6f77000000000081525060200191505060405180910390fd5b8091505092915050565b828054600181600116156101000203166002900490600052602060002090601f016020900481019282601f10620003cc57805160ff1916838001178555620003fd565b82800160010185558215620003fd579182015b82811115620003fc578251825591602001919060010190620003df565b5b5090506200040c919062000410565b5090565b5b808211156200042b57600081600090555060010162000411565b5090565b6110e4806200043f6000396000f3fe608060405234801561001057600080fd5b50600436106100a95760003560e01c80633950935111610071578063395093511461025857806370a08231146102bc57806395d89b4114610314578063a457c2d714610397578063a9059cbb146103fb578063dd62ed3e1461045f576100a9565b806306fdde03146100ae578063095ea7b31461013157806318160ddd1461019557806323b872dd146101b3578063313ce56714610237575b600080fd5b6100b66104d7565b6040518080602001828103825283818151815260200191508051906020019080838360005b838110156100f65780820151818401526020810190506100db565b50505050905090810190601f1680156101235780820380516001836020036101000a031916815260200191505b509250505060405180910390f35b61017d6004803603604081101561014757600080fd5b81019080803573ffffffffffffffffffffffffffffffffffffffff16906020019092919080359060200190929190505050610579565b60405180821515815260200191505060405180910390f35b61019d610597565b6040518082815260200191505060405180910390f35b61021f600480360360608110156101c957600080fd5b81019080803573ffffffffffffffffffffffffffffffffffffffff169060200190929190803573ffffffffffffffffffffffffffffffffffffffff169060200190929190803590602001909291905050506105a1565b60405180821515815260200191505060405180910390f35b61023f61067a565b604051808260ff16815260200191505060405180910390f35b6102a46004803603604081101561026e57600080fd5b81019080803573ffffffffffffffffffffffffffffffffffffffff16906020019092919080359060200190929190505050610691565b60405180821515815260200191505060405180910390f35b6102fe600480360360208110156102d257600080fd5b81019080803573ffffffffffffffffffffffffffffffffffffffff169060200190929190505050610744565b6040518082815260200191505060405180910390f35b61031c61078c565b6040518080602001828103825283818151815260200191508051906020019080838360005b8381101561035c578082015181840152602081019050610341565b50505050905090810190601f1680156103895780820380516001836020036101000a031916815260200191505b509250505060405180910390f35b6103e3600480360360408110156103ad57600080fd5b81019080803573ffffffffffffffffffffffffffffffffffffffff1690602001909291908035906020019092919050505061082e565b60405180821515815260200191505060405180910390f35b6104476004803603604081101561041157600080fd5b81019080803573ffffffffffffffffffffffffffffffffffffffff169060200190929190803590602001909291905050506108fb565b60405180821515815260200191505060405180910390f35b6104c16004803603604081101561047557600080fd5b81019080803573ffffffffffffffffffffffffffffffffffffffff169060200190929190803573ffffffffffffffffffffffffffffffffffffffff169060200190929190505050610919565b6040518082815260200191505060405180910390f35b606060038054600181600116156101000203166002900480601f01602080910402602001604051908101604052809291908181526020018280546001816001161561010002031660029004801561056f5780601f106105445761010080835404028352916020019161056f565b820191906000526020600020905b81548152906001019060200180831161055257829003601f168201915b5050505050905090565b600061058d610586610a28565b8484610a30565b6001905092915050565b6000600254905090565b60006105ae848484610c27565b61066f846105ba610a28565b61066a8560405180606001604052806028815260200161101960289139600160008b73ffffffffffffffffffffffffffffffffffffffff1673ffffffffffffffffffffffffffffffffffffffff1681526020019081526020016000206000610620610a28565b73ffffffffffffffffffffffffffffffffffffffff1673ffffffffffffffffffffffffffffffffffffffff16815260200190815260200160002054610ee89092919063ffffffff16565b610a30565b600190509392505050565b6000600560009054906101000a900460ff16905090565b600061073a61069e610a28565b8461073585600160006106af610a28565b73ffffffffffffffffffffffffffffffffffffffff1673ffffffffffffffffffffffffffffffffffffffff16815260200190815260200160002060008973ffffffffffffffffffffffffffffffffffffffff1673ffffffffffffffffffffffffffffffffffffffff168152602001908152602001600020546109a090919063ffffffff16565b610a30565b6001905092915050565b60008060008373ffffffffffffffffffffffffffffffffffffffff1673ffffffffffffffffffffffffffffffffffffffff168152602001908152602001600020549050919050565b606060048054600181600116156101000203166002900480601f0160208091040260200160405190810160405280929190818152602001828054600181600116156101000203166002900480156108245780601f106107f957610100808354040283529160200191610824565b820191906000526020600020905b81548152906001019060200180831161080757829003601f168201915b5050505050905090565b60006108f161083b610a28565b846108ec8560405180606001604052806025815260200161108a6025913960016000610865610a28565b73ffffffffffffffffffffffffffffffffffffffff1673ffffffffffffffffffffffffffffffffffffffff16815260200190815260200160002060008a73ffffffffffffffffffffffffffffffffffffffff1673ffffffffffffffffffffffffffffffffffffffff16815260200190815260200160002054610ee89092919063ffffffff16565b610a30565b6001905092915050565b600061090f610908610a28565b8484610c27565b6001905092915050565b6000600160008473ffffffffffffffffffffffffffffffffffffffff1673ffffffffffffffffffffffffffffffffffffffff16815260200190815260200160002060008373ffffffffffffffffffffffffffffffffffffffff1673ffffffffffffffffffffffffffffffffffffffff16815260200190815260200160002054905092915050565b600080828401905083811015610a1e576040517f08c379a000000000000000000000000000000000000000000000000000000000815260040180806020018281038252601b8152602001807f536166654d6174683a206164646974696f6e206f766572666c6f77000000000081525060200191505060405180910390fd5b8091505092915050565b600033905090565b600073ffffffffffffffffffffffffffffffffffffffff168373ffffffffffffffffffffffffffffffffffffffff161415610ab6576040517f08c379a00000000000000000000000000000000000000000000000000000000081526004018080602001828103825260248152602001806110666024913960400191505060405180910390fd5b600073ffffffffffffffffffffffffffffffffffffffff168273ffffffffffffffffffffffffffffffffffffffff161415610b3c576040517f08c379a0000000000000000000000000000000000000000000000000000000008152600401808060200182810382526022815260200180610fd16022913960400191505060405180910390fd5b80600160008573ffffffffffffffffffffffffffffffffffffffff1673ffffffffffffffffffffffffffffffffffffffff16815260200190815260200160002060008473ffffffffffffffffffffffffffffffffffffffff1673ffffffffffffffffffffffffffffffffffffffff168152602001908152602001600020819055508173ffffffffffffffffffffffffffffffffffffffff168373ffffffffffffffffffffffffffffffffffffffff167f8c5be1e5ebec7d5bd14f71427d1e84f3dd0314c0f7b2291e5b200ac8c7c3b925836040518082815260200191505060405180910390a3505050565b600073ffffffffffffffffffffffffffffffffffffffff168373ffffffffffffffffffffffffffffffffffffffff161415610cad576040517f08c379a00000000000000000000000000000000000000000000000000000000081526004018080602001828103825260258152602001806110416025913960400191505060405180910390fd5b600073ffffffffffffffffffffffffffffffffffffffff168273ffffffffffffffffffffffffffffffffffffffff161415610d33576040517f08c379a0000000000000000000000000000000000000000000000000000000008152600401808060200182810382526023815260200180610fae6023913960400191505060405180910390fd5b610d3e838383610fa8565b610da981604051806060016040528060268152602001610ff3602691396000808773ffffffffffffffffffffffffffffffffffffffff1673ffffffffffffffffffffffffffffffffffffffff16815260200190815260200160002054610ee89092919063ffffffff16565b6000808573ffffffffffffffffffffffffffffffffffffffff1673ffffffffffffffffffffffffffffffffffffffff16815260200190815260200160002081905550610e3c816000808573ffffffffffffffffffffffffffffffffffffffff1673ffffffffffffffffffffffffffffffffffffffff168152602001908152602001600020546109a090919063ffffffff16565b6000808473ffffffffffffffffffffffffffffffffffffffff1673ffffffffffffffffffffffffffffffffffffffff168152602001908152602001600020819055508173ffffffffffffffffffffffffffffffffffffffff168373ffffffffffffffffffffffffffffffffffffffff167fddf252ad1be2c89b69c2b068fc378daa952ba7f163c4a11628f55a4df523b3ef836040518082815260200191505060405180910390a3505050565b6000838311158290610f95576040517f08c379a00000000000000000000000000000000000000000000000000000000081526004018080602001828103825283818151815260200191508051906020019080838360005b83811015610f5a578082015181840152602081019050610f3f565b50505050905090810190601f168015610f875780820380516001836020036101000a031916815260200191505b509250505060405180910390fd5b5060008385039050809150509392505050565b50505056fe45524332303a207472616e7366657220746f20746865207a65726f206164647265737345524332303a20617070726f766520746f20746865207a65726f206164647265737345524332303a207472616e7366657220616d6f756e7420657863656564732062616c616e636545524332303a207472616e7366657220616d6f756e74206578636565647320616c6c6f77616e636545524332303a207472616e736665722066726f6d20746865207a65726f206164647265737345524332303a20617070726f76652066726f6d20746865207a65726f206164647265737345524332303a2064656372656173656420616c6c6f77616e63652062656c6f77207a65726fa264697066735822122053eae47dfecf05b28b7a8831f915a11b59d18b3870a2f8cf4762561faee2375164736f6c634300060c0033",
  "immutableReferences": {},
  "source": "//SPDX-License-Identifier: MIT\npragma solidity ^0.6.0;\npragma experimental ABIEncoderV2;\n\nimport '@openzeppelin/contracts/token/ERC721/IERC721Metadata.sol';\nimport '@openzeppelin/contracts/token/ERC721/ERC721.sol';\nimport '@openzeppelin/contracts/token/ERC20/ERC20.sol';\nimport '@openzeppelin/contracts/utils/Counters.sol';\nimport '@openzeppelin/contracts/utils/ReentrancyGuard.sol';\nimport '@openzeppelin/contracts/access/Ownable.sol';\nimport '@opengsn/gsn/contracts/BaseRelayRecipient.sol';\n\nimport './TemplatesRegistry.sol';\nimport './IntooTVRoyalty.sol';\n\n/**\n * @title IntooTV TicketFactory\n *\n * @dev Implementation of the TicketFactory contract, which is a Factory and Registry of NFT XP Cards and XP Tickets\n * @author IntooTV\n */\ncontract TicketFactory is BaseRelayRecipient, Ownable, IERC721Metadata, ERC721, ReentrancyGuard {\n  string public override versionRecipient = \"2.0.0\";\n\n  using Counters for Counters.Counter;\n\n  Counters.Counter private tokenIds; // to keep track of the number of NFTs we have minted\n\n  mapping(uint256 => bool) public expiredExperience;\n  mapping(uint256 => uint256) public ticketsToCards;\n  mapping(uint256 => uint256) public cardsToTemplates;\n  mapping(uint256 => bool) isHost;\n\n  event TicketCreated(\n    uint256 ticketId,\n    address ticketCreator,\n    string props,\n    int256 templateIndex\n  );\n  event ExperienceMatchingCreated(\n    uint256 ticketId,\n    address host,\n    address guest,\n    uint256 hostExperienceAccessId,\n    uint256 guestExperienceAccessId\n  );\n  event ExperienceEnded(uint256 experienceId);\n  event PayoutSent(address addressToPay, uint256 amountToPay);\n\n  TemplatesRegistry public templatesRegistry;\n  IntooTVRoyalty public royaltiesToken;\n\n  // we have xpCollector that later distributes the Host\"s reward share so\n  // that noone tries to hack us by calling functions that redirect the reward\n  // to them. We control where it goes at all times\n  constructor(string memory _name, string memory _symbol, address _forwarder)\n    public\n    ERC721(_name, _symbol)\n  {\n    trustedForwarder = _forwarder;\n      \n    templatesRegistry = new TemplatesRegistry();\n    royaltiesToken = new IntooTVRoyalty(500);\n  }\n\n      /**\n     * return the sender of this call.\n     * if the call came through our trusted forwarder, return the original sender.\n     * otherwise, return `msg.sender`.\n     * should be used in the contract anywhere instead of msg.sender\n     */\n    function _msgSender() internal override (BaseRelayRecipient, Context) view returns (address payable ret) {\n        if (msg.data.length >= 24 && isTrustedForwarder(msg.sender)) {\n            // At this point we know that the sender is a trusted forwarder,\n            // so we trust that the last bytes of msg.data are the verified sender address.\n            // extract sender address from the end of msg.data\n            assembly {\n                ret := shr(96,calldataload(sub(calldatasize(),20)))\n            }\n        } else {\n            return msg.sender;\n        }\n    }\n\n    /**\n     * return the msg.data of this call.\n     * if the call came through our trusted forwarder, then the real sender was appended as the last 20 bytes\n     * of the msg.data - so this method will strip those 20 bytes off.\n     * otherwise, return `msg.data`\n     * should be used in the contract instead of msg.data, where the difference matters (e.g. when explicitly\n     * signing or hashing the\n     */\n    function _msgData() internal override (BaseRelayRecipient, Context) virtual view returns (bytes memory ret) {\n        if (msg.data.length >= 24 && isTrustedForwarder(msg.sender)) {\n            // At this point we know that the sender is a trusted forwarder,\n            // we copy the msg.data , except the last 20 bytes (and update the total length)\n            assembly {\n                let ptr := mload(0x40)\n                // copy only size-20 bytes\n                let size := sub(calldatasize(),20)\n                // structure RLP data as <offset> <length> <bytes>\n                mstore(ptr, 0x20)\n                mstore(add(ptr,32), size)\n                calldatacopy(add(ptr,64), 0, size)\n                return(ptr, add(size,64))\n            }\n        } else {\n            return msg.data;\n        }\n    }\n\n  // this function is responsible for minting the ticket NFT\n  // it is the responsibility of the caller to pass the props json schema for ERC721Metadata (_props argument)\n  // _props must include 4 things:\n  // 1. guest avatar (host is not available at this point)\n  // 2. title\n  // 3. description\n  // 4. duration (enum Duration)\n  // find the schema definition to conform to here: https://eips.ethereum.org/EIPS/eip-721\n  function createTicket(\n    string memory _props,\n    int256 _templateIndex,\n    bool _saveAsTemplate\n  ) external payable nonReentrant returns (uint256) {\n    if (_templateIndex > 0 && _saveAsTemplate == true)\n      revert(\"You can't save a card as a template if it's already a template\");\n\n    address _ticketCreator = _msgSender();\n\n    tokenIds.increment();\n    uint256 newItemId = tokenIds.current();\n\n    _mint(_ticketCreator, newItemId);\n\n    if (_templateIndex <= 0) {\n      _setTokenURI(newItemId, _props);\n    } else if (\n      uint256(_templateIndex) < templatesRegistry.getNumOfTemplates()\n    ) {\n      (address creator, string memory props) = templatesRegistry.experienceTemplates(\n        uint256(_templateIndex)\n      );\n\n      _setTokenURI(newItemId, props);\n\n      cardsToTemplates[newItemId] = uint256(_templateIndex);\n\n      if(templatesRegistry.templateUsages(uint256(_templateIndex)) < 5)\n        _payout(creator, 1 * 1e18);\n\n      templatesRegistry.incrementTemplateUsage(uint256(_templateIndex));\n    } else {\n      revert('Invalid template index provided');\n    }\n\n    if (_saveAsTemplate == true) {\n      templatesRegistry.createTicketTemplate(_msgSender(), _props);\n    }\n\n    emit TicketCreated(newItemId, _ticketCreator, _props, _templateIndex);\n\n    return newItemId;\n  }\n\n  // anyone can call this. but! only one person at a time can do this\n  // this is a limitation right now. we can fix it later, such that\n  // we will have an array of people interested in hosting\n  // and we then get the guest to pick (based on reputation, for example)\n  // who to go with. They then mint the access tokens\n  // -----\n  // once again, the client is responsible for creating the properties (as per)\n  // schema mentioned earlier, and passing it to this method\n  function createAccessToEvent(\n    uint256 _ticketId,\n    string memory _props,\n    address host\n  ) external nonReentrant returns (bool) {\n    require(_ticketId <= tokenIds.current(), 'no such experience card');\n    require(expiredExperience[_ticketId] == false, 'experience expired');\n\n    tokenIds.increment();\n    uint256 hostItemId = tokenIds.current();\n    tokenIds.increment();\n    uint256 guestItemId = tokenIds.current();\n\n    _mint(host, hostItemId);\n    // this is the original creator of the ticket\n    _mint(ownerOf(_ticketId), guestItemId);\n\n    ticketsToCards[guestItemId] = _ticketId;\n\n    // right now the properties are the same for both the guest and the host\n    // we may want to change this in the future\n    // also, it is not quite economically sensible to mint two NFTs. After all,\n    // the creator of the original ticket can use that as authorization\n    // from collectible pov, it makes sense to mint two NFTs here\n    _setTokenURI(hostItemId, _props);\n    _setTokenURI(guestItemId, _props);\n\n    emit ExperienceMatchingCreated(\n      _ticketId,\n      host,\n      ownerOf(_ticketId),\n      hostItemId,\n      guestItemId\n    );\n\n    return true;\n  }\n\n  function expireExperience(uint256 _ticketId) external nonReentrant {\n    require(_ticketId <= tokenIds.current(), 'no such experience token');\n    require(\n      expiredExperience[_ticketId] == false,\n      'experience already expired'\n    );\n    require(\n      ownerOf(_ticketId) == _msgSender(),\n      'Only owner of NFT can expire it'\n    );\n\n    expiredExperience[_ticketId] = true;\n\n    emit ExperienceEnded(_ticketId);\n  }\n\n  // This same contract is used as a treasury: DAI are sent to this contract which are\n  // in turn sent as royalties to templates creators\n  function _payout(address _addressToPay, uint256 _amountToPay) internal {\n    royaltiesToken.transfer(_addressToPay, _amountToPay);\n\n    emit PayoutSent(_addressToPay, _amountToPay);\n  }\n}\n",
  "sourcePath": "/Users/bengyles/dev/IntooTv/contracts/contracts/TicketFactory.sol",
  "compiler": {
    "name": "solc",
    "version": "0.6.12+commit.27d51765.Emscripten.clang"
  },
  "schemaVersion": "3.3.2",
  "updatedAt": "2020-12-17T13:10:04.597Z",
  "devdoc": {
    "author": "IntooTV",
    "details": "Implementation of the TicketFactory contract, which is a Factory and Registry of NFT XP Cards and XP Tickets",
    "kind": "dev",
    "methods": {
      "approve(address,uint256)": {
        "details": "See {IERC721-approve}."
      },
      "balanceOf(address)": {
        "details": "See {IERC721-balanceOf}."
      },
      "baseURI()": {
        "details": "Returns the base URI set via {_setBaseURI}. This will be automatically added as a prefix in {tokenURI} to each token's URI, or to the token ID if no specific URI is set for that token ID."
      },
      "getApproved(uint256)": {
        "details": "See {IERC721-getApproved}."
      },
      "isApprovedForAll(address,address)": {
        "details": "See {IERC721-isApprovedForAll}."
      },
      "name()": {
        "details": "See {IERC721Metadata-name}."
      },
      "owner()": {
        "details": "Returns the address of the current owner."
      },
      "ownerOf(uint256)": {
        "details": "See {IERC721-ownerOf}."
      },
      "renounceOwnership()": {
        "details": "Leaves the contract without owner. It will not be possible to call `onlyOwner` functions anymore. Can only be called by the current owner. NOTE: Renouncing ownership will leave the contract without an owner, thereby removing any functionality that is only available to the owner."
      },
      "safeTransferFrom(address,address,uint256)": {
        "details": "See {IERC721-safeTransferFrom}."
      },
      "safeTransferFrom(address,address,uint256,bytes)": {
        "details": "See {IERC721-safeTransferFrom}."
      },
      "setApprovalForAll(address,bool)": {
        "details": "See {IERC721-setApprovalForAll}."
      },
      "supportsInterface(bytes4)": {
        "details": "See {IERC165-supportsInterface}. Time complexity O(1), guaranteed to always use less than 30 000 gas."
      },
      "symbol()": {
        "details": "See {IERC721Metadata-symbol}."
      },
      "tokenByIndex(uint256)": {
        "details": "See {IERC721Enumerable-tokenByIndex}."
      },
      "tokenOfOwnerByIndex(address,uint256)": {
        "details": "See {IERC721Enumerable-tokenOfOwnerByIndex}."
      },
      "tokenURI(uint256)": {
        "details": "See {IERC721Metadata-tokenURI}."
      },
      "totalSupply()": {
        "details": "See {IERC721Enumerable-totalSupply}."
      },
      "transferFrom(address,address,uint256)": {
        "details": "See {IERC721-transferFrom}."
      },
      "transferOwnership(address)": {
        "details": "Transfers ownership of the contract to a new account (`newOwner`). Can only be called by the current owner."
      }
    },
    "title": "IntooTV TicketFactory",
    "version": 1
  },
  "userdoc": {
    "kind": "user",
    "methods": {
      "isTrustedForwarder(address)": {
        "notice": "return if the forwarder is trusted to forward relayed transactions to us. the forwarder is required to verify the sender's signature, and verify the call is not a replay."
      }
    },
    "version": 1
  }
}